{
  "_format": "hh-sol-artifact-1",
  "contractName": "BallotTask",
  "sourceName": "contracts/BallotTask.sol",
  "abi": [
    {
      "inputs": [],
      "stateMutability": "nonpayable",
      "type": "constructor"
    },
    {
      "anonymous": false,
      "inputs": [
        {
          "indexed": false,
          "internalType": "address",
          "name": "voterA",
          "type": "address"
        },
        {
          "indexed": false,
          "internalType": "string",
          "name": "voterN",
          "type": "string"
        }
      ],
      "name": "voterAdded",
      "type": "event"
    },
    {
      "anonymous": false,
      "inputs": [
        {
          "indexed": false,
          "internalType": "address",
          "name": "voterB",
          "type": "address"
        },
        {
          "indexed": false,
          "internalType": "string",
          "name": "voterN",
          "type": "string"
        }
      ],
      "name": "voterBaned",
      "type": "event"
    },
    {
      "anonymous": false,
      "inputs": [
        {
          "indexed": false,
          "internalType": "string",
          "name": "currentstage",
          "type": "string"
        }
      ],
      "name": "votingStage",
      "type": "event"
    },
    {
      "inputs": [
        {
          "internalType": "address",
          "name": "_voterAddress",
          "type": "address"
        },
        {
          "internalType": "string",
          "name": "_voterName",
          "type": "string"
        }
      ],
      "name": "addVoter",
      "outputs": [],
      "stateMutability": "nonpayable",
      "type": "function"
    },
    {
      "inputs": [],
      "name": "ballotName",
      "outputs": [
        {
          "internalType": "string",
          "name": "",
          "type": "string"
        }
      ],
      "stateMutability": "view",
      "type": "function"
    },
    {
      "inputs": [],
      "name": "ballotOwnerAddress",
      "outputs": [
        {
          "internalType": "address",
          "name": "",
          "type": "address"
        }
      ],
      "stateMutability": "view",
      "type": "function"
    },
    {
      "inputs": [
        {
          "internalType": "address",
          "name": "_voterAddress",
          "type": "address"
        },
        {
          "internalType": "string",
          "name": "_voterName",
          "type": "string"
        }
      ],
      "name": "banVoter",
      "outputs": [],
      "stateMutability": "nonpayable",
      "type": "function"
    },
    {
      "inputs": [
        {
          "internalType": "string",
          "name": "password",
          "type": "string"
        }
      ],
      "name": "changeOwner",
      "outputs": [],
      "stateMutability": "nonpayable",
      "type": "function"
    },
    {
      "inputs": [
        {
          "internalType": "bool",
          "name": "_choice",
          "type": "bool"
        }
      ],
      "name": "doVote",
      "outputs": [
        {
          "internalType": "bool",
          "name": "weight",
          "type": "bool"
        }
      ],
      "stateMutability": "nonpayable",
      "type": "function"
    },
    {
      "inputs": [],
      "name": "endVote",
      "outputs": [],
      "stateMutability": "nonpayable",
      "type": "function"
    },
    {
      "inputs": [],
      "name": "finalResult",
      "outputs": [
        {
          "internalType": "string",
          "name": "",
          "type": "string"
        }
      ],
      "stateMutability": "view",
      "type": "function"
    },
    {
      "inputs": [
        {
          "internalType": "string",
          "name": "_ballotName",
          "type": "string"
        }
      ],
      "name": "startVote",
      "outputs": [],
      "stateMutability": "nonpayable",
      "type": "function"
    },
    {
      "inputs": [],
      "name": "state",
      "outputs": [
        {
          "internalType": "enum BallotTask.State",
          "name": "",
          "type": "uint8"
        }
      ],
      "stateMutability": "view",
      "type": "function"
    },
    {
      "inputs": [],
      "name": "totalBanAddress",
      "outputs": [
        {
          "internalType": "uint256",
          "name": "",
          "type": "uint256"
        }
      ],
      "stateMutability": "view",
      "type": "function"
    },
    {
      "inputs": [],
      "name": "totalVote",
      "outputs": [
        {
          "internalType": "uint256",
          "name": "",
          "type": "uint256"
        }
      ],
      "stateMutability": "view",
      "type": "function"
    },
    {
      "inputs": [],
      "name": "totalVoter",
      "outputs": [
        {
          "internalType": "uint256",
          "name": "",
          "type": "uint256"
        }
      ],
      "stateMutability": "view",
      "type": "function"
    },
    {
      "inputs": [
        {
          "internalType": "address",
          "name": "",
          "type": "address"
        }
      ],
      "name": "voterRegister",
      "outputs": [
        {
          "internalType": "string",
          "name": "voterName",
          "type": "string"
        },
        {
          "internalType": "bool",
          "name": "weight",
          "type": "bool"
        },
        {
          "internalType": "bool",
          "name": "eligible",
          "type": "bool"
        }
      ],
      "stateMutability": "view",
      "type": "function"
    }
  ],
  "bytecode": "0x6080604052600080556000600155600060025560006003556040518060400160405280600c81526020017f6e6f74206465636c61726564000000000000000000000000000000000000000081525060069080519060200190620000649291906200010c565b503480156200007257600080fd5b5033600460006101000a81548173ffffffffffffffffffffffffffffffffffffffff021916908373ffffffffffffffffffffffffffffffffffffffff1602179055506000600960006101000a81548160ff0219169083600281111562000101577f4e487b7100000000000000000000000000000000000000000000000000000000600052602160045260246000fd5b021790555062000221565b8280546200011a90620001bc565b90600052602060002090601f0160209004810192826200013e57600085556200018a565b82601f106200015957805160ff19168380011785556200018a565b828001600101855582156200018a579182015b82811115620001895782518255916020019190600101906200016c565b5b5090506200019991906200019d565b5090565b5b80821115620001b85760008160009055506001016200019e565b5090565b60006002820490506001821680620001d557607f821691505b60208210811415620001ec57620001eb620001f2565b5b50919050565b7f4e487b7100000000000000000000000000000000000000000000000000000000600052602260045260246000fd5b611edb80620002316000396000f3fe608060405234801561001057600080fd5b50600436106100ea5760003560e01c8063c19d93fb1161008c578063f1cea4c711610066578063f1cea4c714610227578063f3a8286f14610245578063f3de784c14610263578063faec4db414610281576100ea565b8063c19d93fb146101d1578063d9e95a98146101ef578063de9f2cff1461020b576100ea565b80637f8143bb116100c85780637f8143bb1461014957806387caea7814610165578063af15408714610195578063b9223946146101c7576100ea565b80631b26586c146100ef5780636332abc91461010d5780636f619a8f1461012b575b600080fd5b6100f761029d565b6040516101049190611a2f565b60405180910390f35b61011561032b565b6040516101229190611b6f565b60405180910390f35b610133610331565b6040516101409190611b6f565b60405180910390f35b610163600480360381019061015e9190611675565b610337565b005b61017f600480360381019061017a919061164c565b6104d9565b60405161018c91906119f9565b60405180910390f35b6101af60048036038101906101aa91906115cf565b6108b5565b6040516101be93929190611a51565b60405180910390f35b6101cf610981565b005b6101d9610c7d565b6040516101e69190611a14565b60405180910390f35b610209600480360381019061020491906115f8565b610c90565b005b610225600480360381019061022091906115f8565b610f66565b005b61022f6112ef565b60405161023c9190611b6f565b60405180910390f35b61024d6112f5565b60405161025a9190611a2f565b60405180910390f35b61026b611383565b60405161027891906119ae565b60405180910390f35b61029b60048036038101906102969190611675565b6113a9565b005b600580546102aa90611d1b565b80601f01602080910402602001604051908101604052809291908181526020018280546102d690611d1b565b80156103235780601f106102f857610100808354040283529160200191610323565b820191906000526020600020905b81548152906001019060200180831161030657829003601f168201915b505050505081565b60015481565b60035481565b6000806002811115610372577f4e487b7100000000000000000000000000000000000000000000000000000000600052602160045260246000fd5b600960009054906101000a900460ff1660028111156103ba577f4e487b7100000000000000000000000000000000000000000000000000000000600052602160045260246000fd5b146103fa576040517f08c379a00000000000000000000000000000000000000000000000000000000081526004016103f190611b0f565b60405180910390fd5b6104386040518060400160405280600881526020017f4368696e676172690000000000000000000000000000000000000000000000008152506113a9565b6001600960006101000a81548160ff02191690836002811115610484577f4e487b7100000000000000000000000000000000000000000000000000000000600052602160045260246000fd5b0217905550816005908051906020019061049f929190611443565b507f128e343ea35aa5c804fccecfff958f45e45931222ce63d7f7675190e09c61ddf6040516104cd90611a8f565b60405180910390a15050565b60006001806002811115610516577f4e487b7100000000000000000000000000000000000000000000000000000000600052602160045260246000fd5b600960009054906101000a900460ff16600281111561055e577f4e487b7100000000000000000000000000000000000000000000000000000000600052602160045260246000fd5b1461059e576040517f08c379a000000000000000000000000000000000000000000000000000000000815260040161059590611b0f565b60405180910390fd5b600960019054906101000a900460ff16156105ee576040517f08c379a00000000000000000000000000000000000000000000000000000000081526004016105e590611aaf565b60405180910390fd5b6001600960016101000a81548160ff02191690831515021790555060011515600860003373ffffffffffffffffffffffffffffffffffffffff1673ffffffffffffffffffffffffffffffffffffffff16815260200190815260200160002060010160009054906101000a900460ff1615151461066957600080fd5b60011515600860003373ffffffffffffffffffffffffffffffffffffffff1673ffffffffffffffffffffffffffffffffffffffff16815260200190815260200160002060010160019054906101000a900460ff161515146106c957600080fd5b6000600190506000600860003373ffffffffffffffffffffffffffffffffffffffff1673ffffffffffffffffffffffffffffffffffffffff16815260200190815260200160002060010160006101000a81548160ff0219169083151502179055506000600860003373ffffffffffffffffffffffffffffffffffffffff1673ffffffffffffffffffffffffffffffffffffffff16815260200190815260200160002060010160016101000a81548160ff02191690831515021790555061078d6114c9565b33816000019073ffffffffffffffffffffffffffffffffffffffff16908173ffffffffffffffffffffffffffffffffffffffff16815250508481602001901515908115158152505084156107f3576000808154809291906107ed90611d4d565b91905055505b8060076000600254815260200190815260200160002060008201518160000160006101000a81548173ffffffffffffffffffffffffffffffffffffffff021916908373ffffffffffffffffffffffffffffffffffffffff16021790555060208201518160000160146101000a81548160ff0219169083151502179055509050506002600081548092919061088690611d4d565b91905055506000915081935050506000600960016101000a81548160ff02191690831515021790555050919050565b60086020528060005260406000206000915090508060000180546108d890611d1b565b80601f016020809104026020016040519081016040528092919081815260200182805461090490611d1b565b80156109515780601f1061092657610100808354040283529160200191610951565b820191906000526020600020905b81548152906001019060200180831161093457829003601f168201915b5050505050908060010160009054906101000a900460ff16908060010160019054906101000a900460ff16905083565b60018060028111156109bc577f4e487b7100000000000000000000000000000000000000000000000000000000600052602160045260246000fd5b600960009054906101000a900460ff166002811115610a04577f4e487b7100000000000000000000000000000000000000000000000000000000600052602160045260246000fd5b14610a44576040517f08c379a0000000000000000000000000000000000000000000000000000000008152600401610a3b90611b0f565b60405180910390fd5b600460009054906101000a900473ffffffffffffffffffffffffffffffffffffffff1673ffffffffffffffffffffffffffffffffffffffff163373ffffffffffffffffffffffffffffffffffffffff1614610ad4576040517f08c379a0000000000000000000000000000000000000000000000000000000008152600401610acb90611b2f565b60405180910390fd5b6002600960006101000a81548160ff02191690836002811115610b20577f4e487b7100000000000000000000000000000000000000000000000000000000600052602160045260246000fd5b02179055506002546000546002610b379190611c12565b1115610b8e576040518060400160405280600481526020017f747275650000000000000000000000000000000000000000000000000000000081525060069080519060200190610b88929190611443565b50610c45565b6002546000546002610ba09190611c12565b1415610bf7576040518060400160405280600481526020017f647261770000000000000000000000000000000000000000000000000000000081525060069080519060200190610bf1929190611443565b50610c44565b6040518060400160405280600581526020017f66616c736500000000000000000000000000000000000000000000000000000081525060069080519060200190610c42929190611443565b505b5b7f128e343ea35aa5c804fccecfff958f45e45931222ce63d7f7675190e09c61ddf604051610c7290611aef565b60405180910390a150565b600960009054906101000a900460ff1681565b600460009054906101000a900473ffffffffffffffffffffffffffffffffffffffff1673ffffffffffffffffffffffffffffffffffffffff163373ffffffffffffffffffffffffffffffffffffffff1614610d20576040517f08c379a0000000000000000000000000000000000000000000000000000000008152600401610d1790611b2f565b60405180910390fd5b600960019054906101000a900460ff1615610d70576040517f08c379a0000000000000000000000000000000000000000000000000000000008152600401610d6790611aaf565b60405180910390fd5b6001600960016101000a81548160ff02191690831515021790555060011515600860008473ffffffffffffffffffffffffffffffffffffffff1673ffffffffffffffffffffffffffffffffffffffff16815260200190815260200160002060010160009054906101000a900460ff1615151514610e22576040517f08c379a0000000000000000000000000000000000000000000000000000000008152600401610e1990611b4f565b60405180910390fd5b610e2a6114fb565b8181600001819052506001816020019015159081151581525050600181604001901515908115158152505080600860008573ffffffffffffffffffffffffffffffffffffffff1673ffffffffffffffffffffffffffffffffffffffff1681526020019081526020016000206000820151816000019080519060200190610eb1929190611443565b5060208201518160010160006101000a81548160ff02191690831515021790555060408201518160010160016101000a81548160ff02191690831515021790555090505060016000815480929190610f0890611d4d565b91905055507f7f965c9bb469cafa2ed0036125936e24650cefc1e5d7b9632fe7f27af4a70b378383604051610f3e9291906119c9565b60405180910390a1506000600960016101000a81548160ff0219169083151502179055505050565b600460009054906101000a900473ffffffffffffffffffffffffffffffffffffffff1673ffffffffffffffffffffffffffffffffffffffff163373ffffffffffffffffffffffffffffffffffffffff1614610ff6576040517f08c379a0000000000000000000000000000000000000000000000000000000008152600401610fed90611b2f565b60405180910390fd5b6001806002811115611031577f4e487b7100000000000000000000000000000000000000000000000000000000600052602160045260246000fd5b600960009054906101000a900460ff166002811115611079577f4e487b7100000000000000000000000000000000000000000000000000000000600052602160045260246000fd5b146110b9576040517f08c379a00000000000000000000000000000000000000000000000000000000081526004016110b090611b0f565b60405180910390fd5b600960019054906101000a900460ff1615611109576040517f08c379a000000000000000000000000000000000000000000000000000000000815260040161110090611aaf565b60405180910390fd5b6001600960016101000a81548160ff02191690831515021790555060001515600860008573ffffffffffffffffffffffffffffffffffffffff1673ffffffffffffffffffffffffffffffffffffffff16815260200190815260200160002060010160009054906101000a900460ff16151515146111bb576040517f08c379a00000000000000000000000000000000000000000000000000000000081526004016111b290611acf565b60405180910390fd5b6111c36114fb565b828160000181905250600081604001901515908115158152505080600860008673ffffffffffffffffffffffffffffffffffffffff1673ffffffffffffffffffffffffffffffffffffffff1681526020019081526020016000206000820151816000019080519060200190611239929190611443565b5060208201518160010160006101000a81548160ff02191690831515021790555060408201518160010160016101000a81548160ff0219169083151502179055509050506003600081548092919061129090611d4d565b91905055507fc386499965ba8cd841bd769a99f3543a6e0037afd9568877ec61402dd3daf6b084846040516112c69291906119c9565b60405180910390a1506000600960016101000a81548160ff021916908315150217905550505050565b60025481565b6006805461130290611d1b565b80601f016020809104026020016040519081016040528092919081815260200182805461132e90611d1b565b801561137b5780601f106113505761010080835404028352916020019161137b565b820191906000526020600020905b81548152906001019060200180831161135e57829003601f168201915b505050505081565b600460009054906101000a900473ffffffffffffffffffffffffffffffffffffffff1681565b6040516020016113b890611999565b60405160208183030381529060405280519060200120816040516020016113df9190611982565b60405160208183030381529060405280519060200120146113ff57600080fd5b33600460006101000a81548173ffffffffffffffffffffffffffffffffffffffff021916908373ffffffffffffffffffffffffffffffffffffffff16021790555050565b82805461144f90611d1b565b90600052602060002090601f01602090048101928261147157600085556114b8565b82601f1061148a57805160ff19168380011785556114b8565b828001600101855582156114b8579182015b828111156114b757825182559160200191906001019061149c565b5b5090506114c59190611520565b5090565b6040518060400160405280600073ffffffffffffffffffffffffffffffffffffffff1681526020016000151581525090565b6040518060600160405280606081526020016000151581526020016000151581525090565b5b80821115611539576000816000905550600101611521565b5090565b600061155061154b84611bbb565b611b8a565b90508281526020810184848401111561156857600080fd5b611573848285611cd9565b509392505050565b60008135905061158a81611e77565b92915050565b60008135905061159f81611e8e565b92915050565b600082601f8301126115b657600080fd5b81356115c684826020860161153d565b91505092915050565b6000602082840312156115e157600080fd5b60006115ef8482850161157b565b91505092915050565b6000806040838503121561160b57600080fd5b60006116198582860161157b565b925050602083013567ffffffffffffffff81111561163657600080fd5b611642858286016115a5565b9150509250929050565b60006020828403121561165e57600080fd5b600061166c84828501611590565b91505092915050565b60006020828403121561168757600080fd5b600082013567ffffffffffffffff8111156116a157600080fd5b6116ad848285016115a5565b91505092915050565b6116bf81611c6c565b82525050565b6116ce81611c7e565b82525050565b6116dd81611cc7565b82525050565b60006116ee82611beb565b6116f88185611bf6565b9350611708818560208601611ce8565b61171181611e52565b840191505092915050565b600061172782611beb565b6117318185611c07565b9350611741818560208601611ce8565b80840191505092915050565b600061175a600e83611bf6565b91507f566f74696e6720537461727465640000000000000000000000000000000000006000830152602082019050919050565b600061179a600d83611bf6565b91507f6e6f207265656e7472616e6379000000000000000000000000000000000000006000830152602082019050919050565b60006117da600883611c07565b91507f4368696e676172690000000000000000000000000000000000000000000000006000830152600882019050919050565b600061181a601a83611bf6565b91507f54686520766f74657220697320616c72656164792062616e65640000000000006000830152602082019050919050565b600061185a600c83611bf6565b91507f566f74696e6720456e64656400000000000000000000000000000000000000006000830152602082019050919050565b600061189a601583611bf6565b91507f4e6f7420696e20726571756972656420537461746500000000000000000000006000830152602082019050919050565b60006118da602c83611bf6565b91507f536f7272792c206f6e6c79206f776e657220697320616c6c6f77656420746f2060008301527f6d616b65206368616e67657300000000000000000000000000000000000000006020830152604082019050919050565b6000611940601f83611bf6565b91507f54686520766f74657220697320616c72656164792072656769737465726564006000830152602082019050919050565b61197c81611cbd565b82525050565b600061198e828461171c565b915081905092915050565b60006119a4826117cd565b9150819050919050565b60006020820190506119c360008301846116b6565b92915050565b60006040820190506119de60008301856116b6565b81810360208301526119f081846116e3565b90509392505050565b6000602082019050611a0e60008301846116c5565b92915050565b6000602082019050611a2960008301846116d4565b92915050565b60006020820190508181036000830152611a4981846116e3565b905092915050565b60006060820190508181036000830152611a6b81866116e3565b9050611a7a60208301856116c5565b611a8760408301846116c5565b949350505050565b60006020820190508181036000830152611aa88161174d565b9050919050565b60006020820190508181036000830152611ac88161178d565b9050919050565b60006020820190508181036000830152611ae88161180d565b9050919050565b60006020820190508181036000830152611b088161184d565b9050919050565b60006020820190508181036000830152611b288161188d565b9050919050565b60006020820190508181036000830152611b48816118cd565b9050919050565b60006020820190508181036000830152611b6881611933565b9050919050565b6000602082019050611b846000830184611973565b92915050565b6000604051905081810181811067ffffffffffffffff82111715611bb157611bb0611e23565b5b8060405250919050565b600067ffffffffffffffff821115611bd657611bd5611e23565b5b601f19601f8301169050602081019050919050565b600081519050919050565b600082825260208201905092915050565b600081905092915050565b6000611c1d82611cbd565b9150611c2883611cbd565b9250817fffffffffffffffffffffffffffffffffffffffffffffffffffffffffffffffff0483118215151615611c6157611c60611d96565b5b828202905092915050565b6000611c7782611c9d565b9050919050565b60008115159050919050565b6000819050611c9882611e63565b919050565b600073ffffffffffffffffffffffffffffffffffffffff82169050919050565b6000819050919050565b6000611cd282611c8a565b9050919050565b82818337600083830152505050565b60005b83811015611d06578082015181840152602081019050611ceb565b83811115611d15576000848401525b50505050565b60006002820490506001821680611d3357607f821691505b60208210811415611d4757611d46611df4565b5b50919050565b6000611d5882611cbd565b91507fffffffffffffffffffffffffffffffffffffffffffffffffffffffffffffffff821415611d8b57611d8a611d96565b5b600182019050919050565b7f4e487b7100000000000000000000000000000000000000000000000000000000600052601160045260246000fd5b7f4e487b7100000000000000000000000000000000000000000000000000000000600052602160045260246000fd5b7f4e487b7100000000000000000000000000000000000000000000000000000000600052602260045260246000fd5b7f4e487b7100000000000000000000000000000000000000000000000000000000600052604160045260246000fd5b6000601f19601f8301169050919050565b60038110611e7457611e73611dc5565b5b50565b611e8081611c6c565b8114611e8b57600080fd5b50565b611e9781611c7e565b8114611ea257600080fd5b5056fea2646970667358221220f181155655c8c8591956bdfecbc882f8b89cb4a83ef078677502fda69902f6b864736f6c63430008000033",
  "linkReferences": {},
  "deployedLinkReferences": {}
}